{
  "contractName": "CryptoFashionToken",
  "abi": [
    {
      "inputs": [
        {
          "internalType": "address",
          "name": "adminAddress",
          "type": "address"
        }
      ],
      "stateMutability": "nonpayable",
      "type": "constructor"
    },
    {
      "anonymous": false,
      "inputs": [
        {
          "indexed": true,
          "internalType": "address",
          "name": "owner",
          "type": "address"
        },
        {
          "indexed": true,
          "internalType": "address",
          "name": "spender",
          "type": "address"
        },
        {
          "indexed": false,
          "internalType": "uint256",
          "name": "value",
          "type": "uint256"
        }
      ],
      "name": "Approval",
      "type": "event"
    },
    {
      "anonymous": false,
      "inputs": [
        {
          "indexed": false,
          "internalType": "address",
          "name": "payer",
          "type": "address"
        },
        {
          "indexed": false,
          "internalType": "uint256",
          "name": "amount",
          "type": "uint256"
        },
        {
          "indexed": false,
          "internalType": "string",
          "name": "orderId",
          "type": "string"
        },
        {
          "indexed": false,
          "internalType": "uint256",
          "name": "date",
          "type": "uint256"
        }
      ],
      "name": "PaymentDone",
      "type": "event"
    },
    {
      "anonymous": false,
      "inputs": [
        {
          "indexed": true,
          "internalType": "address",
          "name": "from",
          "type": "address"
        },
        {
          "indexed": true,
          "internalType": "address",
          "name": "to",
          "type": "address"
        },
        {
          "indexed": false,
          "internalType": "uint256",
          "name": "value",
          "type": "uint256"
        }
      ],
      "name": "Transfer",
      "type": "event"
    },
    {
      "inputs": [],
      "name": "admin",
      "outputs": [
        {
          "internalType": "address",
          "name": "",
          "type": "address"
        }
      ],
      "stateMutability": "view",
      "type": "function",
      "constant": true
    },
    {
      "inputs": [
        {
          "internalType": "address",
          "name": "owner",
          "type": "address"
        },
        {
          "internalType": "address",
          "name": "spender",
          "type": "address"
        }
      ],
      "name": "allowance",
      "outputs": [
        {
          "internalType": "uint256",
          "name": "",
          "type": "uint256"
        }
      ],
      "stateMutability": "view",
      "type": "function",
      "constant": true
    },
    {
      "inputs": [
        {
          "internalType": "address",
          "name": "spender",
          "type": "address"
        },
        {
          "internalType": "uint256",
          "name": "amount",
          "type": "uint256"
        }
      ],
      "name": "approve",
      "outputs": [
        {
          "internalType": "bool",
          "name": "",
          "type": "bool"
        }
      ],
      "stateMutability": "nonpayable",
      "type": "function"
    },
    {
      "inputs": [
        {
          "internalType": "address",
          "name": "account",
          "type": "address"
        }
      ],
      "name": "balanceOf",
      "outputs": [
        {
          "internalType": "uint256",
          "name": "",
          "type": "uint256"
        }
      ],
      "stateMutability": "view",
      "type": "function",
      "constant": true
    },
    {
      "inputs": [],
      "name": "decimals",
      "outputs": [
        {
          "internalType": "uint8",
          "name": "",
          "type": "uint8"
        }
      ],
      "stateMutability": "view",
      "type": "function",
      "constant": true
    },
    {
      "inputs": [
        {
          "internalType": "address",
          "name": "spender",
          "type": "address"
        },
        {
          "internalType": "uint256",
          "name": "subtractedValue",
          "type": "uint256"
        }
      ],
      "name": "decreaseAllowance",
      "outputs": [
        {
          "internalType": "bool",
          "name": "",
          "type": "bool"
        }
      ],
      "stateMutability": "nonpayable",
      "type": "function"
    },
    {
      "inputs": [
        {
          "internalType": "address",
          "name": "spender",
          "type": "address"
        },
        {
          "internalType": "uint256",
          "name": "addedValue",
          "type": "uint256"
        }
      ],
      "name": "increaseAllowance",
      "outputs": [
        {
          "internalType": "bool",
          "name": "",
          "type": "bool"
        }
      ],
      "stateMutability": "nonpayable",
      "type": "function"
    },
    {
      "inputs": [],
      "name": "name",
      "outputs": [
        {
          "internalType": "string",
          "name": "",
          "type": "string"
        }
      ],
      "stateMutability": "view",
      "type": "function",
      "constant": true
    },
    {
      "inputs": [],
      "name": "symbol",
      "outputs": [
        {
          "internalType": "string",
          "name": "",
          "type": "string"
        }
      ],
      "stateMutability": "view",
      "type": "function",
      "constant": true
    },
    {
      "inputs": [],
      "name": "totalSupply",
      "outputs": [
        {
          "internalType": "uint256",
          "name": "",
          "type": "uint256"
        }
      ],
      "stateMutability": "view",
      "type": "function",
      "constant": true
    },
    {
      "inputs": [
        {
          "internalType": "address",
          "name": "to",
          "type": "address"
        },
        {
          "internalType": "uint256",
          "name": "amount",
          "type": "uint256"
        }
      ],
      "name": "transfer",
      "outputs": [
        {
          "internalType": "bool",
          "name": "",
          "type": "bool"
        }
      ],
      "stateMutability": "nonpayable",
      "type": "function"
    },
    {
      "inputs": [
        {
          "internalType": "address",
          "name": "from",
          "type": "address"
        },
        {
          "internalType": "address",
          "name": "to",
          "type": "address"
        },
        {
          "internalType": "uint256",
          "name": "amount",
          "type": "uint256"
        }
      ],
      "name": "transferFrom",
      "outputs": [
        {
          "internalType": "bool",
          "name": "",
          "type": "bool"
        }
      ],
      "stateMutability": "nonpayable",
      "type": "function"
    },
    {
      "inputs": [
        {
          "internalType": "uint256",
          "name": "total",
          "type": "uint256"
        },
        {
          "components": [
            {
              "internalType": "string",
              "name": "orderId",
              "type": "string"
            },
            {
              "internalType": "uint256",
              "name": "amount",
              "type": "uint256"
            }
          ],
          "internalType": "struct CryptoFashionToken.Order[]",
          "name": "orders",
          "type": "tuple[]"
        }
      ],
      "name": "buyWithOrderArr",
      "outputs": [
        {
          "internalType": "bool",
          "name": "",
          "type": "bool"
        }
      ],
      "stateMutability": "payable",
      "type": "function",
      "payable": true
    },
    {
      "inputs": [
        {
          "internalType": "uint256",
          "name": "amount",
          "type": "uint256"
        }
      ],
      "name": "deposit",
      "outputs": [],
      "stateMutability": "payable",
      "type": "function",
      "payable": true
    }
  ],
  "bytecode": "0x60806040523480156200001157600080fd5b5060405162001ecb38038062001ecb833981810160405281019062000037919062000239565b6040518060400160405280601281526020017f43727970746f46617368696f6e546f6b656e00000000000000000000000000008152506040518060400160405280600381526020017f43465400000000000000000000000000000000000000000000000000000000008152508160039080519060200190620000bb9291906200011f565b508060049080519060200190620000d49291906200011f565b50505080600560006101000a81548173ffffffffffffffffffffffffffffffffffffffff021916908373ffffffffffffffffffffffffffffffffffffffff16021790555050620002d0565b8280546200012d906200029a565b90600052602060002090601f0160209004810192826200015157600085556200019d565b82601f106200016c57805160ff19168380011785556200019d565b828001600101855582156200019d579182015b828111156200019c5782518255916020019190600101906200017f565b5b509050620001ac9190620001b0565b5090565b5b80821115620001cb576000816000905550600101620001b1565b5090565b600080fd5b600073ffffffffffffffffffffffffffffffffffffffff82169050919050565b60006200020182620001d4565b9050919050565b6200021381620001f4565b81146200021f57600080fd5b50565b600081519050620002338162000208565b92915050565b600060208284031215620002525762000251620001cf565b5b6000620002628482850162000222565b91505092915050565b7f4e487b7100000000000000000000000000000000000000000000000000000000600052602260045260246000fd5b60006002820490506001821680620002b357607f821691505b60208210811415620002ca57620002c96200026b565b5b50919050565b611beb80620002e06000396000f3fe6080604052600436106100dd5760003560e01c806395d89b411161007f578063b6b55f2511610059578063b6b55f25146102fc578063dd62ed3e14610318578063f851a44014610355578063fb0826b114610380576100dd565b806395d89b4114610257578063a457c2d714610282578063a9059cbb146102bf576100dd565b806323b872dd116100bb57806323b872dd14610175578063313ce567146101b257806339509351146101dd57806370a082311461021a576100dd565b806306fdde03146100e2578063095ea7b31461010d57806318160ddd1461014a575b600080fd5b3480156100ee57600080fd5b506100f76103b0565b6040516101049190610f4a565b60405180910390f35b34801561011957600080fd5b50610134600480360381019061012f9190611014565b610442565b604051610141919061106f565b60405180910390f35b34801561015657600080fd5b5061015f610465565b60405161016c9190611099565b60405180910390f35b34801561018157600080fd5b5061019c600480360381019061019791906110b4565b61046f565b6040516101a9919061106f565b60405180910390f35b3480156101be57600080fd5b506101c761049e565b6040516101d49190611123565b60405180910390f35b3480156101e957600080fd5b5061020460048036038101906101ff9190611014565b6104a7565b604051610211919061106f565b60405180910390f35b34801561022657600080fd5b50610241600480360381019061023c919061113e565b6104de565b60405161024e9190611099565b60405180910390f35b34801561026357600080fd5b5061026c610526565b6040516102799190610f4a565b60405180910390f35b34801561028e57600080fd5b506102a960048036038101906102a49190611014565b6105b8565b6040516102b6919061106f565b60405180910390f35b3480156102cb57600080fd5b506102e660048036038101906102e19190611014565b61062f565b6040516102f3919061106f565b60405180910390f35b6103166004803603810190610311919061116b565b610652565b005b34801561032457600080fd5b5061033f600480360381019061033a9190611198565b61065f565b60405161034c9190611099565b60405180910390f35b34801561036157600080fd5b5061036a6106e6565b60405161037791906111e7565b60405180910390f35b61039a60048036038101906103959190611493565b61070c565b6040516103a7919061106f565b60405180910390f35b6060600380546103bf9061151e565b80601f01602080910402602001604051908101604052809291908181526020018280546103eb9061151e565b80156104385780601f1061040d57610100808354040283529160200191610438565b820191906000526020600020905b81548152906001019060200180831161041b57829003601f168201915b5050505050905090565b60008061044d610879565b905061045a818585610881565b600191505092915050565b6000600254905090565b60008061047a610879565b9050610487858285610a4c565b610492858585610ad8565b60019150509392505050565b60006012905090565b6000806104b2610879565b90506104d38185856104c4858961065f565b6104ce919061157f565b610881565b600191505092915050565b60008060008373ffffffffffffffffffffffffffffffffffffffff1673ffffffffffffffffffffffffffffffffffffffff168152602001908152602001600020549050919050565b6060600480546105359061151e565b80601f01602080910402602001604051908101604052809291908181526020018280546105619061151e565b80156105ae5780601f10610583576101008083540402835291602001916105ae565b820191906000526020600020905b81548152906001019060200180831161059157829003601f168201915b5050505050905090565b6000806105c3610879565b905060006105d1828661065f565b905083811015610616576040517f08c379a000000000000000000000000000000000000000000000000000000000815260040161060d90611647565b60405180910390fd5b6106238286868403610881565b60019250505092915050565b60008061063a610879565b9050610647818585610ad8565b600191505092915050565b61065c3382610d50565b50565b6000600160008473ffffffffffffffffffffffffffffffffffffffff1673ffffffffffffffffffffffffffffffffffffffff16815260200190815260200160002060008373ffffffffffffffffffffffffffffffffffffffff1673ffffffffffffffffffffffffffffffffffffffff16815260200190815260200160002054905092915050565b600560009054906101000a900473ffffffffffffffffffffffffffffffffffffffff1681565b600080825111610751576040517f08c379a0000000000000000000000000000000000000000000000000000000008152600401610748906116b3565b60405180910390fd5b823414610793576040517f08c379a000000000000000000000000000000000000000000000000000000000815260040161078a9061171f565b60405180910390fd5b61079d3334610d50565b6107a73334610442565b506107d533600560009054906101000a900473ffffffffffffffffffffffffffffffffffffffff163461046f565b5060005b825181101561086e577f5deda500cf2f51e0ae5ba5537859f938dadea1f0d406c57f7a1ad89ea5f24348338483815181106108175761081661173f565b5b6020026020010151602001518584815181106108365761083561173f565b5b60200260200101516000015142604051610853949392919061176e565b60405180910390a18080610866906117ba565b9150506107d9565b506001905092915050565b600033905090565b600073ffffffffffffffffffffffffffffffffffffffff168373ffffffffffffffffffffffffffffffffffffffff1614156108f1576040517f08c379a00000000000000000000000000000000000000000000000000000000081526004016108e890611875565b60405180910390fd5b600073ffffffffffffffffffffffffffffffffffffffff168273ffffffffffffffffffffffffffffffffffffffff161415610961576040517f08c379a000000000000000000000000000000000000000000000000000000000815260040161095890611907565b60405180910390fd5b80600160008573ffffffffffffffffffffffffffffffffffffffff1673ffffffffffffffffffffffffffffffffffffffff16815260200190815260200160002060008473ffffffffffffffffffffffffffffffffffffffff1673ffffffffffffffffffffffffffffffffffffffff168152602001908152602001600020819055508173ffffffffffffffffffffffffffffffffffffffff168373ffffffffffffffffffffffffffffffffffffffff167f8c5be1e5ebec7d5bd14f71427d1e84f3dd0314c0f7b2291e5b200ac8c7c3b92583604051610a3f9190611099565b60405180910390a3505050565b6000610a58848461065f565b90507fffffffffffffffffffffffffffffffffffffffffffffffffffffffffffffffff8114610ad25781811015610ac4576040517f08c379a0000000000000000000000000000000000000000000000000000000008152600401610abb90611973565b60405180910390fd5b610ad18484848403610881565b5b50505050565b600073ffffffffffffffffffffffffffffffffffffffff168373ffffffffffffffffffffffffffffffffffffffff161415610b48576040517f08c379a0000000000000000000000000000000000000000000000000000000008152600401610b3f90611a05565b60405180910390fd5b600073ffffffffffffffffffffffffffffffffffffffff168273ffffffffffffffffffffffffffffffffffffffff161415610bb8576040517f08c379a0000000000000000000000000000000000000000000000000000000008152600401610baf90611a97565b60405180910390fd5b610bc3838383610ea7565b60008060008573ffffffffffffffffffffffffffffffffffffffff1673ffffffffffffffffffffffffffffffffffffffff16815260200190815260200160002054905081811015610c49576040517f08c379a0000000000000000000000000000000000000000000000000000000008152600401610c4090611b29565b60405180910390fd5b8181036000808673ffffffffffffffffffffffffffffffffffffffff1673ffffffffffffffffffffffffffffffffffffffff16815260200190815260200160002081905550816000808573ffffffffffffffffffffffffffffffffffffffff1673ffffffffffffffffffffffffffffffffffffffff168152602001908152602001600020600082825401925050819055508273ffffffffffffffffffffffffffffffffffffffff168473ffffffffffffffffffffffffffffffffffffffff167fddf252ad1be2c89b69c2b068fc378daa952ba7f163c4a11628f55a4df523b3ef84604051610d379190611099565b60405180910390a3610d4a848484610eac565b50505050565b600073ffffffffffffffffffffffffffffffffffffffff168273ffffffffffffffffffffffffffffffffffffffff161415610dc0576040517f08c379a0000000000000000000000000000000000000000000000000000000008152600401610db790611b95565b60405180910390fd5b610dcc60008383610ea7565b8060026000828254610dde919061157f565b92505081905550806000808473ffffffffffffffffffffffffffffffffffffffff1673ffffffffffffffffffffffffffffffffffffffff168152602001908152602001600020600082825401925050819055508173ffffffffffffffffffffffffffffffffffffffff16600073ffffffffffffffffffffffffffffffffffffffff167fddf252ad1be2c89b69c2b068fc378daa952ba7f163c4a11628f55a4df523b3ef83604051610e8f9190611099565b60405180910390a3610ea360008383610eac565b5050565b505050565b505050565b600081519050919050565b600082825260208201905092915050565b60005b83811015610eeb578082015181840152602081019050610ed0565b83811115610efa576000848401525b50505050565b6000601f19601f8301169050919050565b6000610f1c82610eb1565b610f268185610ebc565b9350610f36818560208601610ecd565b610f3f81610f00565b840191505092915050565b60006020820190508181036000830152610f648184610f11565b905092915050565b6000604051905090565b600080fd5b600080fd5b600073ffffffffffffffffffffffffffffffffffffffff82169050919050565b6000610fab82610f80565b9050919050565b610fbb81610fa0565b8114610fc657600080fd5b50565b600081359050610fd881610fb2565b92915050565b6000819050919050565b610ff181610fde565b8114610ffc57600080fd5b50565b60008135905061100e81610fe8565b92915050565b6000806040838503121561102b5761102a610f76565b5b600061103985828601610fc9565b925050602061104a85828601610fff565b9150509250929050565b60008115159050919050565b61106981611054565b82525050565b60006020820190506110846000830184611060565b92915050565b61109381610fde565b82525050565b60006020820190506110ae600083018461108a565b92915050565b6000806000606084860312156110cd576110cc610f76565b5b60006110db86828701610fc9565b93505060206110ec86828701610fc9565b92505060406110fd86828701610fff565b9150509250925092565b600060ff82169050919050565b61111d81611107565b82525050565b60006020820190506111386000830184611114565b92915050565b60006020828403121561115457611153610f76565b5b600061116284828501610fc9565b91505092915050565b60006020828403121561118157611180610f76565b5b600061118f84828501610fff565b91505092915050565b600080604083850312156111af576111ae610f76565b5b60006111bd85828601610fc9565b92505060206111ce85828601610fc9565b9150509250929050565b6111e181610fa0565b82525050565b60006020820190506111fc60008301846111d8565b92915050565b600080fd5b7f4e487b7100000000000000000000000000000000000000000000000000000000600052604160045260246000fd5b61123f82610f00565b810181811067ffffffffffffffff8211171561125e5761125d611207565b5b80604052505050565b6000611271610f6c565b905061127d8282611236565b919050565b600067ffffffffffffffff82111561129d5761129c611207565b5b602082029050602081019050919050565b600080fd5b600080fd5b600080fd5b600080fd5b600067ffffffffffffffff8211156112dd576112dc611207565b5b6112e682610f00565b9050602081019050919050565b82818337600083830152505050565b6000611315611310846112c2565b611267565b905082815260208101848484011115611331576113306112bd565b5b61133c8482856112f3565b509392505050565b600082601f83011261135957611358611202565b5b8135611369848260208601611302565b91505092915050565b600060408284031215611388576113876112b3565b5b6113926040611267565b9050600082013567ffffffffffffffff8111156113b2576113b16112b8565b5b6113be84828501611344565b60008301525060206113d284828501610fff565b60208301525092915050565b60006113f16113ec84611282565b611267565b90508083825260208201905060208402830185811115611414576114136112ae565b5b835b8181101561145b57803567ffffffffffffffff81111561143957611438611202565b5b8086016114468982611372565b85526020850194505050602081019050611416565b5050509392505050565b600082601f83011261147a57611479611202565b5b813561148a8482602086016113de565b91505092915050565b600080604083850312156114aa576114a9610f76565b5b60006114b885828601610fff565b925050602083013567ffffffffffffffff8111156114d9576114d8610f7b565b5b6114e585828601611465565b9150509250929050565b7f4e487b7100000000000000000000000000000000000000000000000000000000600052602260045260246000fd5b6000600282049050600182168061153657607f821691505b6020821081141561154a576115496114ef565b5b50919050565b7f4e487b7100000000000000000000000000000000000000000000000000000000600052601160045260246000fd5b600061158a82610fde565b915061159583610fde565b9250827fffffffffffffffffffffffffffffffffffffffffffffffffffffffffffffffff038211156115ca576115c9611550565b5b828201905092915050565b7f45524332303a2064656372656173656420616c6c6f77616e63652062656c6f7760008201527f207a65726f000000000000000000000000000000000000000000000000000000602082015250565b6000611631602583610ebc565b915061163c826115d5565b604082019050919050565b6000602082019050818103600083015261166081611624565b9050919050565b7f4f7264657273206d7573742062652067726561746572207468616e20302e0000600082015250565b600061169d601e83610ebc565b91506116a882611667565b602082019050919050565b600060208201905081810360008301526116cc81611690565b9050919050565b7f496e76616c696420616d6f75756e742e00000000000000000000000000000000600082015250565b6000611709601083610ebc565b9150611714826116d3565b602082019050919050565b60006020820190508181036000830152611738816116fc565b9050919050565b7f4e487b7100000000000000000000000000000000000000000000000000000000600052603260045260246000fd5b600060808201905061178360008301876111d8565b611790602083018661108a565b81810360408301526117a28185610f11565b90506117b1606083018461108a565b95945050505050565b60006117c582610fde565b91507fffffffffffffffffffffffffffffffffffffffffffffffffffffffffffffffff8214156117f8576117f7611550565b5b600182019050919050565b7f45524332303a20617070726f76652066726f6d20746865207a65726f2061646460008201527f7265737300000000000000000000000000000000000000000000000000000000602082015250565b600061185f602483610ebc565b915061186a82611803565b604082019050919050565b6000602082019050818103600083015261188e81611852565b9050919050565b7f45524332303a20617070726f766520746f20746865207a65726f20616464726560008201527f7373000000000000000000000000000000000000000000000000000000000000602082015250565b60006118f1602283610ebc565b91506118fc82611895565b604082019050919050565b60006020820190508181036000830152611920816118e4565b9050919050565b7f45524332303a20696e73756666696369656e7420616c6c6f77616e6365000000600082015250565b600061195d601d83610ebc565b915061196882611927565b602082019050919050565b6000602082019050818103600083015261198c81611950565b9050919050565b7f45524332303a207472616e736665722066726f6d20746865207a65726f20616460008201527f6472657373000000000000000000000000000000000000000000000000000000602082015250565b60006119ef602583610ebc565b91506119fa82611993565b604082019050919050565b60006020820190508181036000830152611a1e816119e2565b9050919050565b7f45524332303a207472616e7366657220746f20746865207a65726f206164647260008201527f6573730000000000000000000000000000000000000000000000000000000000602082015250565b6000611a81602383610ebc565b9150611a8c82611a25565b604082019050919050565b60006020820190508181036000830152611ab081611a74565b9050919050565b7f45524332303a207472616e7366657220616d6f756e742065786365656473206260008201527f616c616e63650000000000000000000000000000000000000000000000000000602082015250565b6000611b13602683610ebc565b9150611b1e82611ab7565b604082019050919050565b60006020820190508181036000830152611b4281611b06565b9050919050565b7f45524332303a206d696e7420746f20746865207a65726f206164647265737300600082015250565b6000611b7f601f83610ebc565b9150611b8a82611b49565b602082019050919050565b60006020820190508181036000830152611bae81611b72565b905091905056fea2646970667358221220663e96512118777f95d5f9451c4b13ec012225c46a4e824e79e1abef67063bb264736f6c634300080b0033",
  "immutableReferences": {},
  "source": "// SPDX-License-Identifier: MIT\r\npragma solidity ^0.8.11;\r\n\r\nimport \"@openzeppelin/contracts/token/ERC20/ERC20.sol\";\r\n\r\ncontract CryptoFashionToken is ERC20 {\r\n    struct Order {\r\n        string orderId;\r\n        uint256 amount;\r\n    }\r\n    address public admin;\r\n\r\n    event PaymentDone(\r\n        address payer,\r\n        uint256 amount,\r\n        string orderId,\r\n        uint256 date\r\n    );\r\n\r\n    constructor(address adminAddress) ERC20(\"CryptoFashionToken\", \"CFT\") {\r\n        admin = adminAddress;\r\n    }\r\n\r\n    function buyWithOrderArr(\r\n        uint256 total,\r\n        Order[] memory orders\r\n    ) public payable returns (bool) {\r\n        require(orders.length > 0, \"Orders must be greater than 0.\");\r\n        require(msg.value == total, \"Invalid amouunt.\");\r\n        _mint(msg.sender, msg.value);\r\n        approve(msg.sender, msg.value);\r\n        transferFrom(msg.sender, admin, msg.value);\r\n        for (uint256 i = 0; i < orders.length; i++) {\r\n            emit PaymentDone(\r\n                msg.sender,\r\n                orders[i].amount,\r\n                orders[i].orderId,\r\n                block.timestamp\r\n            );\r\n        }\r\n        return true;\r\n    }\r\n\r\n    function deposit(uint256 amount) public payable {\r\n        _mint(msg.sender, amount);\r\n    }\r\n}\r\n",
  "sourcePath": "D:\\work_2023\\Crypto-Fashion-Website\\truffle-project\\contracts\\CrytoFashionToken.sol",
  "compiler": {
    "name": "solc",
    "version": "0.8.11+commit.d7f03943.Emscripten.clang"
  },
  "schemaVersion": "3.4.15",
  "updatedAt": "2023-08-18T17:41:29.589Z",
  "networkType": "ethereum",
  "devdoc": {
    "kind": "dev",
    "methods": {
      "allowance(address,address)": {
        "details": "See {IERC20-allowance}."
      },
      "approve(address,uint256)": {
        "details": "See {IERC20-approve}. NOTE: If `amount` is the maximum `uint256`, the allowance is not updated on `transferFrom`. This is semantically equivalent to an infinite approval. Requirements: - `spender` cannot be the zero address."
      },
      "balanceOf(address)": {
        "details": "See {IERC20-balanceOf}."
      },
      "decimals()": {
        "details": "Returns the number of decimals used to get its user representation. For example, if `decimals` equals `2`, a balance of `505` tokens should be displayed to a user as `5.05` (`505 / 10 ** 2`). Tokens usually opt for a value of 18, imitating the relationship between Ether and Wei. This is the default value returned by this function, unless it's overridden. NOTE: This information is only used for _display_ purposes: it in no way affects any of the arithmetic of the contract, including {IERC20-balanceOf} and {IERC20-transfer}."
      },
      "decreaseAllowance(address,uint256)": {
        "details": "Atomically decreases the allowance granted to `spender` by the caller. This is an alternative to {approve} that can be used as a mitigation for problems described in {IERC20-approve}. Emits an {Approval} event indicating the updated allowance. Requirements: - `spender` cannot be the zero address. - `spender` must have allowance for the caller of at least `subtractedValue`."
      },
      "increaseAllowance(address,uint256)": {
        "details": "Atomically increases the allowance granted to `spender` by the caller. This is an alternative to {approve} that can be used as a mitigation for problems described in {IERC20-approve}. Emits an {Approval} event indicating the updated allowance. Requirements: - `spender` cannot be the zero address."
      },
      "name()": {
        "details": "Returns the name of the token."
      },
      "symbol()": {
        "details": "Returns the symbol of the token, usually a shorter version of the name."
      },
      "totalSupply()": {
        "details": "See {IERC20-totalSupply}."
      },
      "transfer(address,uint256)": {
        "details": "See {IERC20-transfer}. Requirements: - `to` cannot be the zero address. - the caller must have a balance of at least `amount`."
      },
      "transferFrom(address,address,uint256)": {
        "details": "See {IERC20-transferFrom}. Emits an {Approval} event indicating the updated allowance. This is not required by the EIP. See the note at the beginning of {ERC20}. NOTE: Does not update the allowance if the current allowance is the maximum `uint256`. Requirements: - `from` and `to` cannot be the zero address. - `from` must have a balance of at least `amount`. - the caller must have allowance for ``from``'s tokens of at least `amount`."
      }
    },
    "version": 1
  },
  "userdoc": {
    "kind": "user",
    "methods": {},
    "version": 1
  }
}