{
  "contractName": "PaymentProcess",
  "abi": [
    {
      "inputs": [
        {
          "internalType": "address",
          "name": "adminAddress",
          "type": "address"
        },
        {
          "internalType": "address",
          "name": "cftAddress",
          "type": "address"
        }
      ],
      "stateMutability": "nonpayable",
      "type": "constructor"
    },
    {
      "anonymous": false,
      "inputs": [
        {
          "indexed": false,
          "internalType": "address",
          "name": "payer",
          "type": "address"
        },
        {
          "indexed": false,
          "internalType": "uint256",
          "name": "amount",
          "type": "uint256"
        },
        {
          "indexed": false,
          "internalType": "string",
          "name": "orderId",
          "type": "string"
        },
        {
          "indexed": false,
          "internalType": "uint256",
          "name": "date",
          "type": "uint256"
        }
      ],
      "name": "PaymentDone",
      "type": "event"
    },
    {
      "inputs": [],
      "name": "admin",
      "outputs": [
        {
          "internalType": "address",
          "name": "",
          "type": "address"
        }
      ],
      "stateMutability": "view",
      "type": "function",
      "constant": true
    },
    {
      "inputs": [],
      "name": "cft",
      "outputs": [
        {
          "internalType": "contract IERC20",
          "name": "",
          "type": "address"
        }
      ],
      "stateMutability": "view",
      "type": "function",
      "constant": true
    },
    {
      "inputs": [
        {
          "internalType": "uint256",
          "name": "amount",
          "type": "uint256"
        },
        {
          "internalType": "string",
          "name": "orderId",
          "type": "string"
        }
      ],
      "name": "pay",
      "outputs": [],
      "stateMutability": "nonpayable",
      "type": "function"
    }
  ],
  "bytecode": "0x608060405234801561001057600080fd5b506040516107cf3803806107cf8339818101604052810190610032919061011d565b816000806101000a81548173ffffffffffffffffffffffffffffffffffffffff021916908373ffffffffffffffffffffffffffffffffffffffff16021790555080600160006101000a81548173ffffffffffffffffffffffffffffffffffffffff021916908373ffffffffffffffffffffffffffffffffffffffff160217905550505061015d565b600080fd5b600073ffffffffffffffffffffffffffffffffffffffff82169050919050565b60006100ea826100bf565b9050919050565b6100fa816100df565b811461010557600080fd5b50565b600081519050610117816100f1565b92915050565b60008060408385031215610134576101336100ba565b5b600061014285828601610108565b925050602061015385828601610108565b9150509250929050565b6106638061016c6000396000f3fe608060405234801561001057600080fd5b50600436106100415760003560e01c8063154fbbc414610046578063df51443314610062578063f851a44014610080575b600080fd5b610060600480360381019061005b919061037c565b61009e565b005b61006a6101a2565b6040516100779190610457565b60405180910390f35b6100886101c8565b6040516100959190610493565b60405180910390f35b600160009054906101000a900473ffffffffffffffffffffffffffffffffffffffff1673ffffffffffffffffffffffffffffffffffffffff166323b872dd3360008054906101000a900473ffffffffffffffffffffffffffffffffffffffff16856040518463ffffffff1660e01b815260040161011d939291906104bd565b6020604051808303816000875af115801561013c573d6000803e3d6000fd5b505050506040513d601f19601f82011682018060405250810190610160919061052c565b507f5deda500cf2f51e0ae5ba5537859f938dadea1f0d406c57f7a1ad89ea5f243483383834260405161019694939291906105e1565b60405180910390a15050565b600160009054906101000a900473ffffffffffffffffffffffffffffffffffffffff1681565b60008054906101000a900473ffffffffffffffffffffffffffffffffffffffff1681565b6000604051905090565b600080fd5b600080fd5b6000819050919050565b61021381610200565b811461021e57600080fd5b50565b6000813590506102308161020a565b92915050565b600080fd5b600080fd5b6000601f19601f8301169050919050565b7f4e487b7100000000000000000000000000000000000000000000000000000000600052604160045260246000fd5b61028982610240565b810181811067ffffffffffffffff821117156102a8576102a7610251565b5b80604052505050565b60006102bb6101ec565b90506102c78282610280565b919050565b600067ffffffffffffffff8211156102e7576102e6610251565b5b6102f082610240565b9050602081019050919050565b82818337600083830152505050565b600061031f61031a846102cc565b6102b1565b90508281526020810184848401111561033b5761033a61023b565b5b6103468482856102fd565b509392505050565b600082601f83011261036357610362610236565b5b813561037384826020860161030c565b91505092915050565b60008060408385031215610393576103926101f6565b5b60006103a185828601610221565b925050602083013567ffffffffffffffff8111156103c2576103c16101fb565b5b6103ce8582860161034e565b9150509250929050565b600073ffffffffffffffffffffffffffffffffffffffff82169050919050565b6000819050919050565b600061041d610418610413846103d8565b6103f8565b6103d8565b9050919050565b600061042f82610402565b9050919050565b600061044182610424565b9050919050565b61045181610436565b82525050565b600060208201905061046c6000830184610448565b92915050565b600061047d826103d8565b9050919050565b61048d81610472565b82525050565b60006020820190506104a86000830184610484565b92915050565b6104b781610200565b82525050565b60006060820190506104d26000830186610484565b6104df6020830185610484565b6104ec60408301846104ae565b949350505050565b60008115159050919050565b610509816104f4565b811461051457600080fd5b50565b60008151905061052681610500565b92915050565b600060208284031215610542576105416101f6565b5b600061055084828501610517565b91505092915050565b600081519050919050565b600082825260208201905092915050565b60005b83811015610593578082015181840152602081019050610578565b838111156105a2576000848401525b50505050565b60006105b382610559565b6105bd8185610564565b93506105cd818560208601610575565b6105d681610240565b840191505092915050565b60006080820190506105f66000830187610484565b61060360208301866104ae565b818103604083015261061581856105a8565b905061062460608301846104ae565b9594505050505056fea26469706673582212202ff95297e1a282cd3cb8f7d731df15ef263fda4f7018f548d62bad441bcf082b64736f6c634300080b0033",
  "immutableReferences": {},
  "source": "// SPDX-License-Identifier: MIT\r\npragma solidity ^0.8.11;\r\n\r\nimport \"@openzeppelin/contracts/token/ERC20/ERC20.sol\";\r\n\r\ncontract PaymentProcess {\r\n    address public admin;\r\n    IERC20 public cft;\r\n\r\n    event PaymentDone(address payer, uint amount, string orderId, uint date);\r\n\r\n    constructor(address adminAddress, address cftAddress) {\r\n        admin = adminAddress;\r\n        cft = IERC20(cftAddress);\r\n    }\r\n\r\n    function pay(uint amount, string memory orderId) external {\r\n        cft.transferFrom(msg.sender, admin, amount);\r\n        emit PaymentDone(msg.sender, amount, orderId, block.timestamp);\r\n    }\r\n}\r\n",
  "sourcePath": "D:\\work_2023\\Crypto-Fashion-Website\\truffle-project\\contracts\\PayementProcess.sol",
  "compiler": {
    "name": "solc",
    "version": "0.8.11+commit.d7f03943.Emscripten.clang"
  },
  "schemaVersion": "3.4.15",
  "updatedAt": "2023-08-17T18:22:14.269Z",
  "networkType": "ethereum",
  "devdoc": {
    "kind": "dev",
    "methods": {},
    "version": 1
  },
  "userdoc": {
    "kind": "user",
    "methods": {},
    "version": 1
  }
}